{
  "address": "0x5FbDB2315678afecb367f032d93F642f64180aa3",
  "abi": [
    {
      "inputs": [],
      "stateMutability": "nonpayable",
      "type": "constructor"
    },
    {
      "inputs": [],
      "name": "Book__AlreadyAdmin",
      "type": "error"
    },
    {
      "inputs": [],
      "name": "Book__NotAdmin",
      "type": "error"
    },
    {
      "inputs": [],
      "name": "Book__NotOwner",
      "type": "error"
    },
    {
      "anonymous": false,
      "inputs": [
        {
          "indexed": true,
          "internalType": "address",
          "name": "sender",
          "type": "address"
        },
        {
          "indexed": true,
          "internalType": "string",
          "name": "ISBN",
          "type": "string"
        }
      ],
      "name": "AddBook",
      "type": "event"
    },
    {
      "anonymous": false,
      "inputs": [
        {
          "indexed": true,
          "internalType": "address",
          "name": "sender",
          "type": "address"
        },
        {
          "indexed": true,
          "internalType": "string",
          "name": "ISBN",
          "type": "string"
        }
      ],
      "name": "DeleteBook",
      "type": "event"
    },
    {
      "anonymous": false,
      "inputs": [
        {
          "indexed": true,
          "internalType": "address",
          "name": "sender",
          "type": "address"
        },
        {
          "indexed": true,
          "internalType": "string",
          "name": "ISBN",
          "type": "string"
        },
        {
          "indexed": false,
          "internalType": "string",
          "name": "newTitle",
          "type": "string"
        },
        {
          "indexed": false,
          "internalType": "string",
          "name": "newYear",
          "type": "string"
        },
        {
          "indexed": false,
          "internalType": "string",
          "name": "newAuthor",
          "type": "string"
        }
      ],
      "name": "UpdateBook",
      "type": "event"
    },
    {
      "inputs": [
        {
          "internalType": "address",
          "name": "_admin",
          "type": "address"
        }
      ],
      "name": "addAdmin",
      "outputs": [],
      "stateMutability": "nonpayable",
      "type": "function"
    },
    {
      "inputs": [
        {
          "internalType": "string",
          "name": "_title",
          "type": "string"
        },
        {
          "internalType": "string",
          "name": "_year",
          "type": "string"
        },
        {
          "internalType": "string",
          "name": "_author",
          "type": "string"
        }
      ],
      "name": "addBook",
      "outputs": [],
      "stateMutability": "nonpayable",
      "type": "function"
    },
    {
      "inputs": [
        {
          "internalType": "string",
          "name": "_ISBN",
          "type": "string"
        }
      ],
      "name": "deleteBook",
      "outputs": [],
      "stateMutability": "nonpayable",
      "type": "function"
    },
    {
      "inputs": [
        {
          "internalType": "string",
          "name": "_ISBN",
          "type": "string"
        }
      ],
      "name": "getBook",
      "outputs": [
        {
          "internalType": "string",
          "name": "title",
          "type": "string"
        },
        {
          "internalType": "string",
          "name": "year",
          "type": "string"
        },
        {
          "internalType": "string",
          "name": "author",
          "type": "string"
        }
      ],
      "stateMutability": "view",
      "type": "function"
    },
    {
      "inputs": [],
      "name": "getBookCount",
      "outputs": [
        {
          "internalType": "uint256",
          "name": "",
          "type": "uint256"
        }
      ],
      "stateMutability": "view",
      "type": "function"
    },
    {
      "inputs": [],
      "name": "i_owner",
      "outputs": [
        {
          "internalType": "address",
          "name": "",
          "type": "address"
        }
      ],
      "stateMutability": "view",
      "type": "function"
    },
    {
      "inputs": [
        {
          "internalType": "string",
          "name": "",
          "type": "string"
        }
      ],
      "name": "s_ISBNtoBookData",
      "outputs": [
        {
          "internalType": "uint256",
          "name": "bookIndex",
          "type": "uint256"
        },
        {
          "internalType": "string",
          "name": "ISBN",
          "type": "string"
        },
        {
          "internalType": "string",
          "name": "title",
          "type": "string"
        },
        {
          "internalType": "string",
          "name": "year",
          "type": "string"
        },
        {
          "internalType": "string",
          "name": "author",
          "type": "string"
        }
      ],
      "stateMutability": "view",
      "type": "function"
    },
    {
      "inputs": [
        {
          "internalType": "uint256",
          "name": "",
          "type": "uint256"
        }
      ],
      "name": "s_admins",
      "outputs": [
        {
          "internalType": "address",
          "name": "",
          "type": "address"
        }
      ],
      "stateMutability": "view",
      "type": "function"
    },
    {
      "inputs": [
        {
          "internalType": "uint256",
          "name": "",
          "type": "uint256"
        }
      ],
      "name": "s_bookDatas",
      "outputs": [
        {
          "internalType": "uint256",
          "name": "bookIndex",
          "type": "uint256"
        },
        {
          "internalType": "string",
          "name": "ISBN",
          "type": "string"
        },
        {
          "internalType": "string",
          "name": "title",
          "type": "string"
        },
        {
          "internalType": "string",
          "name": "year",
          "type": "string"
        },
        {
          "internalType": "string",
          "name": "author",
          "type": "string"
        }
      ],
      "stateMutability": "view",
      "type": "function"
    },
    {
      "inputs": [
        {
          "internalType": "string",
          "name": "_ISBN",
          "type": "string"
        },
        {
          "internalType": "string",
          "name": "_title",
          "type": "string"
        },
        {
          "internalType": "string",
          "name": "_year",
          "type": "string"
        },
        {
          "internalType": "string",
          "name": "_author",
          "type": "string"
        }
      ],
      "name": "updateBook",
      "outputs": [],
      "stateMutability": "nonpayable",
      "type": "function"
    }
  ],
  "transactionHash": "0xeb5a732d07bf0cdae70861975a31b762ad596ac27b539fa1bf7d9dc4300e509a",
  "args": [],
  "numDeployments": 1,
  "solcInputHash": "db5ff9dd06f82a8e0a162ddc0deb8bca",
  "bytecode": "0x60a060405234801561001057600080fd5b503373ffffffffffffffffffffffffffffffffffffffff1660808173ffffffffffffffffffffffffffffffffffffffff16815250506080516130d5610067600039600081816108c9015261142a01526130d56000f3fe608060405234801561001057600080fd5b506004361061009e5760003560e01c8063c37a836111610066578063c37a836114610173578063c6fde7ae146101a5578063d73e0c89146101c1578063dba6335f146101df578063f9637523146101fd5761009e565b80635385dc4b146100a357806369c46826146100d757806370480275146100f3578063902d11441461010f57806395d6522414610143575b600080fd5b6100bd60048036038101906100b891906121cb565b610219565b6040516100ce9594939291906122ac565b60405180910390f35b6100f160048036038101906100ec919061237b565b610485565b005b61010d6004803603810190610108919061248d565b6108c7565b005b610129600480360381019061012491906124e6565b610a8d565b60405161013a9594939291906122ac565b60405180910390f35b61015d600480360381019061015891906124e6565b610cf3565b60405161016a9190612522565b60405180910390f35b61018d6004803603810190610188919061253d565b610d32565b60405161019c9392919061258a565b60405180910390f35b6101bf60048036038101906101ba91906125d6565b610fd5565b005b6101c961141e565b6040516101d691906126bf565b60405180910390f35b6101e7611428565b6040516101f49190612522565b60405180910390f35b6102176004803603810190610212919061253d565b61144c565b005b60038180516020810182018051848252602083016020850120818352809550505050505060009150905080600001549080600101805461025890612709565b80601f016020809104026020016040519081016040528092919081815260200182805461028490612709565b80156102d15780601f106102a6576101008083540402835291602001916102d1565b820191906000526020600020905b8154815290600101906020018083116102b457829003601f168201915b5050505050908060020180546102e690612709565b80601f016020809104026020016040519081016040528092919081815260200182805461031290612709565b801561035f5780601f106103345761010080835404028352916020019161035f565b820191906000526020600020905b81548152906001019060200180831161034257829003601f168201915b50505050509080600301805461037490612709565b80601f01602080910402602001604051908101604052809291908181526020018280546103a090612709565b80156103ed5780601f106103c2576101008083540402835291602001916103ed565b820191906000526020600020905b8154815290600101906020018083116103d057829003601f168201915b50505050509080600401805461040290612709565b80601f016020809104026020016040519081016040528092919081815260200182805461042e90612709565b801561047b5780601f106104505761010080835404028352916020019161047b565b820191906000526020600020905b81548152906001019060200180831161045e57829003601f168201915b5050505050905085565b6104da600160003373ffffffffffffffffffffffffffffffffffffffff1673ffffffffffffffffffffffffffffffffffffffff16815260200190815260200160002060009054906101000a900460ff16611cba565b600160003373ffffffffffffffffffffffffffffffffffffffff1673ffffffffffffffffffffffffffffffffffffffff16815260200190815260200160002060009054906101000a900460ff1661055d576040517ffe1ba86600000000000000000000000000000000000000000000000000000000815260040160405180910390fd5b60006040518060a0016040528061057261141e565b815260200161064e89898080601f016020809104026020016040519081016040528093929190818152602001838380828437600081840152601f19601f8201169050808301925050505050505088888080601f016020809104026020016040519081016040528093929190818152602001838380828437600081840152601f19601f8201169050808301925050505050505087878080601f016020809104026020016040519081016040528093929190818152602001838380828437600081840152601f19601f82011690508083019250505050505050611d53565b815260200188888080601f016020809104026020016040519081016040528093929190818152602001838380828437600081840152601f19601f82011690508083019250505050505050815260200186868080601f016020809104026020016040519081016040528093929190818152602001838380828437600081840152601f19601f82011690508083019250505050505050815260200184848080601f016020809104026020016040519081016040528093929190818152602001838380828437600081840152601f19601f82011690508083019250505050505050815250905080600382602001516040516107469190612776565b90815260200160405180910390206000820151816000015560208201518160010190816107739190612939565b5060408201518160020190816107899190612939565b50606082015181600301908161079f9190612939565b5060808201518160040190816107b59190612939565b5090505060028190806001815401808255809150506001900390600052602060002090600502016000909190919091506000820151816000015560208201518160010190816108049190612939565b50604082015181600201908161081a9190612939565b5060608201518160030190816108309190612939565b5060808201518160040190816108469190612939565b5050506004600081548092919061085c90612a3a565b919050555080602001516040516108739190612776565b60405180910390203373ffffffffffffffffffffffffffffffffffffffff167f083cafe0795caff3dc497bfb2a0acf6a316e1b7ac84b2989470711eb20c5d32f60405160405180910390a350505050505050565b7f000000000000000000000000000000000000000000000000000000000000000073ffffffffffffffffffffffffffffffffffffffff163373ffffffffffffffffffffffffffffffffffffffff161461094c576040517f2a67e70300000000000000000000000000000000000000000000000000000000815260040160405180910390fd5b600160008273ffffffffffffffffffffffffffffffffffffffff1673ffffffffffffffffffffffffffffffffffffffff16815260200190815260200160002060009054906101000a900460ff16156109d0576040517f4826aaab00000000000000000000000000000000000000000000000000000000815260040160405180910390fd5b6000819080600181540180825580915050600190039060005260206000200160009091909190916101000a81548173ffffffffffffffffffffffffffffffffffffffff021916908373ffffffffffffffffffffffffffffffffffffffff16021790555060018060008373ffffffffffffffffffffffffffffffffffffffff1673ffffffffffffffffffffffffffffffffffffffff16815260200190815260200160002060006101000a81548160ff02191690831515021790555050565b60028181548110610a9d57600080fd5b9060005260206000209060050201600091509050806000015490806001018054610ac690612709565b80601f0160208091040260200160405190810160405280929190818152602001828054610af290612709565b8015610b3f5780601f10610b1457610100808354040283529160200191610b3f565b820191906000526020600020905b815481529060010190602001808311610b2257829003601f168201915b505050505090806002018054610b5490612709565b80601f0160208091040260200160405190810160405280929190818152602001828054610b8090612709565b8015610bcd5780601f10610ba257610100808354040283529160200191610bcd565b820191906000526020600020905b815481529060010190602001808311610bb057829003601f168201915b505050505090806003018054610be290612709565b80601f0160208091040260200160405190810160405280929190818152602001828054610c0e90612709565b8015610c5b5780601f10610c3057610100808354040283529160200191610c5b565b820191906000526020600020905b815481529060010190602001808311610c3e57829003601f168201915b505050505090806004018054610c7090612709565b80601f0160208091040260200160405190810160405280929190818152602001828054610c9c90612709565b8015610ce95780601f10610cbe57610100808354040283529160200191610ce9565b820191906000526020600020905b815481529060010190602001808311610ccc57829003601f168201915b5050505050905085565b60008181548110610d0357600080fd5b906000526020600020016000915054906101000a900473ffffffffffffffffffffffffffffffffffffffff1681565b6060806060600060038686604051610d4b929190612aa7565b90815260200160405180910390206040518060a001604052908160008201548152602001600182018054610d7e90612709565b80601f0160208091040260200160405190810160405280929190818152602001828054610daa90612709565b8015610df75780601f10610dcc57610100808354040283529160200191610df7565b820191906000526020600020905b815481529060010190602001808311610dda57829003601f168201915b50505050508152602001600282018054610e1090612709565b80601f0160208091040260200160405190810160405280929190818152602001828054610e3c90612709565b8015610e895780601f10610e5e57610100808354040283529160200191610e89565b820191906000526020600020905b815481529060010190602001808311610e6c57829003601f168201915b50505050508152602001600382018054610ea290612709565b80601f0160208091040260200160405190810160405280929190818152602001828054610ece90612709565b8015610f1b5780601f10610ef057610100808354040283529160200191610f1b565b820191906000526020600020905b815481529060010190602001808311610efe57829003601f168201915b50505050508152602001600482018054610f3490612709565b80601f0160208091040260200160405190810160405280929190818152602001828054610f6090612709565b8015610fad5780601f10610f8257610100808354040283529160200191610fad565b820191906000526020600020905b815481529060010190602001808311610f9057829003601f168201915b5050505050815250509050806040015181606001518260800151935093509350509250925092565b61102a600160003373ffffffffffffffffffffffffffffffffffffffff1673ffffffffffffffffffffffffffffffffffffffff16815260200190815260200160002060009054906101000a900460ff16611cba565b600160003373ffffffffffffffffffffffffffffffffffffffff1673ffffffffffffffffffffffffffffffffffffffff16815260200190815260200160002060009054906101000a900460ff166110ad576040517ffe1ba86600000000000000000000000000000000000000000000000000000000815260040160405180910390fd5b6000600389896040516110c1929190612aa7565b9081526020016040518091039020905086868260020191826110e4929190612acb565b5084848260030191826110f8929190612acb565b50828282600401918261110c929190612acb565b506111e487878080601f016020809104026020016040519081016040528093929190818152602001838380828437600081840152601f19601f8201169050808301925050505050505086868080601f016020809104026020016040519081016040528093929190818152602001838380828437600081840152601f19601f8201169050808301925050505050505085858080601f016020809104026020016040519081016040528093929190818152602001838380828437600081840152601f19601f82011690508083019250505050505050611d53565b8160010190816111f49190612939565b5080600282600001548154811061120e5761120d612b9b565b5b9060005260206000209060050201600082015481600001556001820181600101908161123a9190612be0565b506002820181600201908161124f9190612be0565b50600382018160030190816112649190612be0565b50600482018160040190816112799190612be0565b509050508060010160038a8a604051611293929190612aa7565b908152602001604051809103902060010190816112b09190612cf3565b50806003826001016040516112c59190612e5e565b908152602001604051809103902060008201548160000155600182018160010190816112f19190612be0565b50600282018160020190816113069190612be0565b506003820181600301908161131b9190612be0565b50600482018160040190816113309190612be0565b5090505060038989604051611346929190612aa7565b908152602001604051809103902060008082016000905560018201600061136d919061200a565b60028201600061137d919061200a565b60038201600061138d919061200a565b60048201600061139d919061200a565b5050806001016040516113b09190612e5e565b60405180910390203373ffffffffffffffffffffffffffffffffffffffff167fab2e32836ff663f07cfa976f66983933f86dc2d4dab5bc9cea43fb08a11cbc4c83600201846003018560040160405161140b93929190612ef9565b60405180910390a3505050505050505050565b6000600454905090565b7f000000000000000000000000000000000000000000000000000000000000000081565b6114a1600160003373ffffffffffffffffffffffffffffffffffffffff1673ffffffffffffffffffffffffffffffffffffffff16815260200190815260200160002060009054906101000a900460ff16611cba565b600160003373ffffffffffffffffffffffffffffffffffffffff1673ffffffffffffffffffffffffffffffffffffffff16815260200190815260200160002060009054906101000a900460ff16611524576040517ffe1ba86600000000000000000000000000000000000000000000000000000000815260040160405180910390fd5b60006002805480602002602001604051908101604052809291908181526020016000905b828210156117cc57838290600052602060002090600502016040518060a00160405290816000820154815260200160018201805461158590612709565b80601f01602080910402602001604051908101604052809291908181526020018280546115b190612709565b80156115fe5780601f106115d3576101008083540402835291602001916115fe565b820191906000526020600020905b8154815290600101906020018083116115e157829003601f168201915b5050505050815260200160028201805461161790612709565b80601f016020809104026020016040519081016040528092919081815260200182805461164390612709565b80156116905780601f1061166557610100808354040283529160200191611690565b820191906000526020600020905b81548152906001019060200180831161167357829003601f168201915b505050505081526020016003820180546116a990612709565b80601f01602080910402602001604051908101604052809291908181526020018280546116d590612709565b80156117225780601f106116f757610100808354040283529160200191611722565b820191906000526020600020905b81548152906001019060200180831161170557829003601f168201915b5050505050815260200160048201805461173b90612709565b80601f016020809104026020016040519081016040528092919081815260200182805461176790612709565b80156117b45780601f10611789576101008083540402835291602001916117b4565b820191906000526020600020905b81548152906001019060200180831161179757829003601f168201915b50505050508152505081526020019060010190611548565b5050505090506000600384846040516117e6929190612aa7565b90815260200160405180910390206040518060a00160405290816000820154815260200160018201805461181990612709565b80601f016020809104026020016040519081016040528092919081815260200182805461184590612709565b80156118925780601f1061186757610100808354040283529160200191611892565b820191906000526020600020905b81548152906001019060200180831161187557829003601f168201915b505050505081526020016002820180546118ab90612709565b80601f01602080910402602001604051908101604052809291908181526020018280546118d790612709565b80156119245780601f106118f957610100808354040283529160200191611924565b820191906000526020600020905b81548152906001019060200180831161190757829003601f168201915b5050505050815260200160038201805461193d90612709565b80601f016020809104026020016040519081016040528092919081815260200182805461196990612709565b80156119b65780601f1061198b576101008083540402835291602001916119b6565b820191906000526020600020905b81548152906001019060200180831161199957829003601f168201915b505050505081526020016004820180546119cf90612709565b80601f01602080910402602001604051908101604052809291908181526020018280546119fb90612709565b8015611a485780601f10611a1d57610100808354040283529160200191611a48565b820191906000526020600020905b815481529060010190602001808311611a2b57829003601f168201915b5050505050815250509050600081600001519050600060018451611a6c9190612f45565b90506000848281518110611a8357611a82612b9b565b5b602002602001015190508260038260200151604051611aa29190612776565b90815260200160405180910390206000018190555060038160200151604051611acb9190612776565b908152602001604051809103902060028481548110611aed57611aec612b9b565b5b90600052602060002090600502016000820154816000015560018201816001019081611b199190612be0565b5060028201816002019081611b2e9190612be0565b5060038201816003019081611b439190612be0565b5060048201816004019081611b589190612be0565b5090505060038787604051611b6e929190612aa7565b9081526020016040518091039020600080820160009055600182016000611b95919061200a565b600282016000611ba5919061200a565b600382016000611bb5919061200a565b600482016000611bc5919061200a565b50506002805480611bd957611bd8612f79565b5b6001900381819060005260206000209060050201600080820160009055600182016000611c06919061200a565b600282016000611c16919061200a565b600382016000611c26919061200a565b600482016000611c36919061200a565b50509055600160046000828254611c4d9190612f45565b925050819055508360200151604051611c669190612776565b60405180910390203373ffffffffffffffffffffffffffffffffffffffff167f56dc6ba9433789419ee2327ea8f852b8515317b931d6ab30ad174955c686828a60405160405180910390a350505050505050565b611d5081604051602401611cce9190612fc3565b6040516020818303038152906040527f32458eed000000000000000000000000000000000000000000000000000000007bffffffffffffffffffffffffffffffffffffffffffffffffffffffff19166020820180517bffffffffffffffffffffffffffffffffffffffffffffffffffffffff8381831617835250505050611da3565b50565b60606000611d5f61141e565b858585604051602001611d759493929190612fff565b6040516020818303038152906040529050611d99818051906020012060001c611dbd565b9150509392505050565b611dba81611db2611e8b611eac565b63ffffffff16565b50565b606060006001611dcc84611eb7565b01905060008167ffffffffffffffff811115611deb57611dea6120a0565b5b6040519080825280601f01601f191660200182016040528015611e1d5781602001600182028036833780820191505090505b509050600082602001820190505b600115611e80578080600190039150507f3031323334353637383961626364656600000000000000000000000000000000600a86061a8153600a8581611e7457611e73613041565b5b04945060008503611e2b575b819350505050919050565b60006a636f6e736f6c652e6c6f679050600080835160208501845afa505050565b61204a819050919050565b600080600090507a184f03e93ff9f4daa797ed6e38ed64bf6a1f0100000000000000008310611f15577a184f03e93ff9f4daa797ed6e38ed64bf6a1f0100000000000000008381611f0b57611f0a613041565b5b0492506040810190505b6d04ee2d6d415b85acef81000000008310611f52576d04ee2d6d415b85acef81000000008381611f4857611f47613041565b5b0492506020810190505b662386f26fc100008310611f8157662386f26fc100008381611f7757611f76613041565b5b0492506010810190505b6305f5e1008310611faa576305f5e1008381611fa057611f9f613041565b5b0492506008810190505b6127108310611fcf576127108381611fc557611fc4613041565b5b0492506004810190505b60648310611ff25760648381611fe857611fe7613041565b5b0492506002810190505b600a8310612001576001810190505b80915050919050565b50805461201690612709565b6000825580601f106120285750612047565b601f0160209004906000526020600020908101906120469190612054565b5b50565b612052613070565b565b5b8082111561206d576000816000905550600101612055565b5090565b6000604051905090565b600080fd5b600080fd5b600080fd5b600080fd5b6000601f19601f8301169050919050565b7f4e487b7100000000000000000000000000000000000000000000000000000000600052604160045260246000fd5b6120d88261208f565b810181811067ffffffffffffffff821117156120f7576120f66120a0565b5b80604052505050565b600061210a612071565b905061211682826120cf565b919050565b600067ffffffffffffffff821115612136576121356120a0565b5b61213f8261208f565b9050602081019050919050565b82818337600083830152505050565b600061216e6121698461211b565b612100565b90508281526020810184848401111561218a5761218961208a565b5b61219584828561214c565b509392505050565b600082601f8301126121b2576121b1612085565b5b81356121c284826020860161215b565b91505092915050565b6000602082840312156121e1576121e061207b565b5b600082013567ffffffffffffffff8111156121ff576121fe612080565b5b61220b8482850161219d565b91505092915050565b6000819050919050565b61222781612214565b82525050565b600081519050919050565b600082825260208201905092915050565b60005b8381101561226757808201518184015260208101905061224c565b60008484015250505050565b600061227e8261222d565b6122888185612238565b9350612298818560208601612249565b6122a18161208f565b840191505092915050565b600060a0820190506122c1600083018861221e565b81810360208301526122d38187612273565b905081810360408301526122e78186612273565b905081810360608301526122fb8185612273565b9050818103608083015261230f8184612273565b90509695505050505050565b600080fd5b600080fd5b60008083601f84011261233b5761233a612085565b5b8235905067ffffffffffffffff8111156123585761235761231b565b5b60208301915083600182028301111561237457612373612320565b5b9250929050565b600080600080600080606087890312156123985761239761207b565b5b600087013567ffffffffffffffff8111156123b6576123b5612080565b5b6123c289828a01612325565b9650965050602087013567ffffffffffffffff8111156123e5576123e4612080565b5b6123f189828a01612325565b9450945050604087013567ffffffffffffffff81111561241457612413612080565b5b61242089828a01612325565b92509250509295509295509295565b600073ffffffffffffffffffffffffffffffffffffffff82169050919050565b600061245a8261242f565b9050919050565b61246a8161244f565b811461247557600080fd5b50565b60008135905061248781612461565b92915050565b6000602082840312156124a3576124a261207b565b5b60006124b184828501612478565b91505092915050565b6124c381612214565b81146124ce57600080fd5b50565b6000813590506124e0816124ba565b92915050565b6000602082840312156124fc576124fb61207b565b5b600061250a848285016124d1565b91505092915050565b61251c8161244f565b82525050565b60006020820190506125376000830184612513565b92915050565b600080602083850312156125545761255361207b565b5b600083013567ffffffffffffffff81111561257257612571612080565b5b61257e85828601612325565b92509250509250929050565b600060608201905081810360008301526125a48186612273565b905081810360208301526125b88185612273565b905081810360408301526125cc8184612273565b9050949350505050565b6000806000806000806000806080898b0312156125f6576125f561207b565b5b600089013567ffffffffffffffff81111561261457612613612080565b5b6126208b828c01612325565b9850985050602089013567ffffffffffffffff81111561264357612642612080565b5b61264f8b828c01612325565b9650965050604089013567ffffffffffffffff81111561267257612671612080565b5b61267e8b828c01612325565b9450945050606089013567ffffffffffffffff8111156126a1576126a0612080565b5b6126ad8b828c01612325565b92509250509295985092959890939650565b60006020820190506126d4600083018461221e565b92915050565b7f4e487b7100000000000000000000000000000000000000000000000000000000600052602260045260246000fd5b6000600282049050600182168061272157607f821691505b602082108103612734576127336126da565b5b50919050565b600081905092915050565b60006127508261222d565b61275a818561273a565b935061276a818560208601612249565b80840191505092915050565b60006127828284612745565b915081905092915050565b60008190508160005260206000209050919050565b60006020601f8301049050919050565b600082821b905092915050565b6000600883026127ef7fffffffffffffffffffffffffffffffffffffffffffffffffffffffffffffffff826127b2565b6127f986836127b2565b95508019841693508086168417925050509392505050565b6000819050919050565b600061283661283161282c84612214565b612811565b612214565b9050919050565b6000819050919050565b6128508361281b565b61286461285c8261283d565b8484546127bf565b825550505050565b600090565b61287961286c565b612884818484612847565b505050565b5b818110156128a85761289d600082612871565b60018101905061288a565b5050565b601f8211156128ed576128be8161278d565b6128c7846127a2565b810160208510156128d6578190505b6128ea6128e2856127a2565b830182612889565b50505b505050565b600082821c905092915050565b6000612910600019846008026128f2565b1980831691505092915050565b600061292983836128ff565b9150826002028217905092915050565b6129428261222d565b67ffffffffffffffff81111561295b5761295a6120a0565b5b6129658254612709565b6129708282856128ac565b600060209050601f8311600181146129a35760008415612991578287015190505b61299b858261291d565b865550612a03565b601f1984166129b18661278d565b60005b828110156129d9578489015182556001820191506020850194506020810190506129b4565b868310156129f657848901516129f2601f8916826128ff565b8355505b6001600288020188555050505b505050505050565b7f4e487b7100000000000000000000000000000000000000000000000000000000600052601160045260246000fd5b6000612a4582612214565b91507fffffffffffffffffffffffffffffffffffffffffffffffffffffffffffffffff8203612a7757612a76612a0b565b5b600182019050919050565b6000612a8e838561273a565b9350612a9b83858461214c565b82840190509392505050565b6000612ab4828486612a82565b91508190509392505050565b600082905092915050565b612ad58383612ac0565b67ffffffffffffffff811115612aee57612aed6120a0565b5b612af88254612709565b612b038282856128ac565b6000601f831160018114612b325760008415612b20578287013590505b612b2a858261291d565b865550612b92565b601f198416612b408661278d565b60005b82811015612b6857848901358255600182019150602085019450602081019050612b43565b86831015612b855784890135612b81601f8916826128ff565b8355505b6001600288020188555050505b50505050505050565b7f4e487b7100000000000000000000000000000000000000000000000000000000600052603260045260246000fd5b600081549050612bd981612709565b9050919050565b818103612bee575050612cc6565b612bf782612bca565b67ffffffffffffffff811115612c1057612c0f6120a0565b5b612c1a8254612709565b612c258282856128ac565b6000601f831160018114612c545760008415612c42578287015490505b612c4c858261291d565b865550612cbf565b601f198416612c628761278d565b9650612c6d8661278d565b60005b82811015612c9557848901548255600182019150600185019450602081019050612c70565b86831015612cb25784890154612cae601f8916826128ff565b8355505b6001600288020188555050505b5050505050505b565b600081549050612cd781612709565b9050919050565b60008190508160005260206000209050919050565b818103612d01575050612dd9565b612d0a82612cc8565b67ffffffffffffffff811115612d2357612d226120a0565b5b612d2d8254612709565b612d388282856128ac565b6000601f831160018114612d675760008415612d55578287015490505b612d5f858261291d565b865550612dd2565b601f198416612d7587612cde565b9650612d808661278d565b60005b82811015612da857848901548255600182019150600185019450602081019050612d83565b86831015612dc55784890154612dc1601f8916826128ff565b8355505b6001600288020188555050505b5050505050505b565b60008154612de881612709565b612df2818661273a565b94506001821660008114612e0d5760018114612e2257612e55565b60ff1983168652811515820286019350612e55565b612e2b8561278d565b60005b83811015612e4d57815481890152600182019150602081019050612e2e565b838801955050505b50505092915050565b6000612e6a8284612ddb565b915081905092915050565b60008154612e8281612709565b612e8c8186612238565b94506001821660008114612ea75760018114612ebd57612ef0565b60ff198316865281151560200286019350612ef0565b612ec68561278d565b60005b83811015612ee857815481890152600182019150602081019050612ec9565b808801955050505b50505092915050565b60006060820190508181036000830152612f138186612e75565b90508181036020830152612f278185612e75565b90508181036040830152612f3b8184612e75565b9050949350505050565b6000612f5082612214565b9150612f5b83612214565b9250828203905081811115612f7357612f72612a0b565b5b92915050565b7f4e487b7100000000000000000000000000000000000000000000000000000000600052603160045260246000fd5b60008115159050919050565b612fbd81612fa8565b82525050565b6000602082019050612fd86000830184612fb4565b92915050565b6000819050919050565b612ff9612ff482612214565b612fde565b82525050565b600061300b8287612fe8565b60208201915061301b8286612745565b91506130278285612745565b91506130338284612745565b915081905095945050505050565b7f4e487b7100000000000000000000000000000000000000000000000000000000600052601260045260246000fd5b7f4e487b7100000000000000000000000000000000000000000000000000000000600052605160045260246000fdfea264697066735822122061bbae1fd060b047a2cc6fe7fb4c5b402fb7ff4270755174894470bdecafe30d64736f6c63430008130033",
  "devdoc": {
    "kind": "dev",
    "methods": {},
    "version": 1
  },
  "userdoc": {
    "kind": "user",
    "methods": {},
    "version": 1
  },
  "storageLayout": {
    "storage": [
      {
        "astId": 1217,
        "contract": "contracts/Book.sol:Book",
        "label": "s_admins",
        "offset": 0,
        "slot": "0",
        "type": "t_array(t_address)dyn_storage"
      },
      {
        "astId": 1221,
        "contract": "contracts/Book.sol:Book",
        "label": "s_isAdmin",
        "offset": 0,
        "slot": "1",
        "type": "t_mapping(t_address,t_bool)"
      },
      {
        "astId": 1236,
        "contract": "contracts/Book.sol:Book",
        "label": "s_bookDatas",
        "offset": 0,
        "slot": "2",
        "type": "t_array(t_struct(BookData)1232_storage)dyn_storage"
      },
      {
        "astId": 1241,
        "contract": "contracts/Book.sol:Book",
        "label": "s_ISBNtoBookData",
        "offset": 0,
        "slot": "3",
        "type": "t_mapping(t_string_memory_ptr,t_struct(BookData)1232_storage)"
      },
      {
        "astId": 1243,
        "contract": "contracts/Book.sol:Book",
        "label": "s_bookCount",
        "offset": 0,
        "slot": "4",
        "type": "t_uint256"
      }
    ],
    "types": {
      "t_address": {
        "encoding": "inplace",
        "label": "address",
        "numberOfBytes": "20"
      },
      "t_array(t_address)dyn_storage": {
        "base": "t_address",
        "encoding": "dynamic_array",
        "label": "address[]",
        "numberOfBytes": "32"
      },
      "t_array(t_struct(BookData)1232_storage)dyn_storage": {
        "base": "t_struct(BookData)1232_storage",
        "encoding": "dynamic_array",
        "label": "struct Book.BookData[]",
        "numberOfBytes": "32"
      },
      "t_bool": {
        "encoding": "inplace",
        "label": "bool",
        "numberOfBytes": "1"
      },
      "t_mapping(t_address,t_bool)": {
        "encoding": "mapping",
        "key": "t_address",
        "label": "mapping(address => bool)",
        "numberOfBytes": "32",
        "value": "t_bool"
      },
      "t_mapping(t_string_memory_ptr,t_struct(BookData)1232_storage)": {
        "encoding": "mapping",
        "key": "t_string_memory_ptr",
        "label": "mapping(string => struct Book.BookData)",
        "numberOfBytes": "32",
        "value": "t_struct(BookData)1232_storage"
      },
      "t_string_memory_ptr": {
        "encoding": "bytes",
        "label": "string",
        "numberOfBytes": "32"
      },
      "t_string_storage": {
        "encoding": "bytes",
        "label": "string",
        "numberOfBytes": "32"
      },
      "t_struct(BookData)1232_storage": {
        "encoding": "inplace",
        "label": "struct Book.BookData",
        "members": [
          {
            "astId": 1223,
            "contract": "contracts/Book.sol:Book",
            "label": "bookIndex",
            "offset": 0,
            "slot": "0",
            "type": "t_uint256"
          },
          {
            "astId": 1225,
            "contract": "contracts/Book.sol:Book",
            "label": "ISBN",
            "offset": 0,
            "slot": "1",
            "type": "t_string_storage"
          },
          {
            "astId": 1227,
            "contract": "contracts/Book.sol:Book",
            "label": "title",
            "offset": 0,
            "slot": "2",
            "type": "t_string_storage"
          },
          {
            "astId": 1229,
            "contract": "contracts/Book.sol:Book",
            "label": "year",
            "offset": 0,
            "slot": "3",
            "type": "t_string_storage"
          },
          {
            "astId": 1231,
            "contract": "contracts/Book.sol:Book",
            "label": "author",
            "offset": 0,
            "slot": "4",
            "type": "t_string_storage"
          }
        ],
        "numberOfBytes": "160"
      },
      "t_uint256": {
        "encoding": "inplace",
        "label": "uint256",
        "numberOfBytes": "32"
      }
    }
  }
}